{
  "_format": "hh-sol-artifact-1",
  "contractName": "MyEpicNFT",
  "sourceName": "contracts/MyEpicNFT.sol",
  "abi": [
    {
      "inputs": [],
      "stateMutability": "nonpayable",
      "type": "constructor"
    },
    {
      "anonymous": false,
      "inputs": [
        {
          "indexed": true,
          "internalType": "address",
          "name": "owner",
          "type": "address"
        },
        {
          "indexed": true,
          "internalType": "address",
          "name": "approved",
          "type": "address"
        },
        {
          "indexed": true,
          "internalType": "uint256",
          "name": "tokenId",
          "type": "uint256"
        }
      ],
      "name": "Approval",
      "type": "event"
    },
    {
      "anonymous": false,
      "inputs": [
        {
          "indexed": true,
          "internalType": "address",
          "name": "owner",
          "type": "address"
        },
        {
          "indexed": true,
          "internalType": "address",
          "name": "operator",
          "type": "address"
        },
        {
          "indexed": false,
          "internalType": "bool",
          "name": "approved",
          "type": "bool"
        }
      ],
      "name": "ApprovalForAll",
      "type": "event"
    },
    {
      "anonymous": false,
      "inputs": [
        {
          "indexed": false,
          "internalType": "address",
          "name": "sender",
          "type": "address"
        },
        {
          "indexed": false,
          "internalType": "uint256",
          "name": "tokenId",
          "type": "uint256"
        }
      ],
      "name": "NewEpicNFTMinted",
      "type": "event"
    },
    {
      "anonymous": false,
      "inputs": [
        {
          "indexed": true,
          "internalType": "address",
          "name": "from",
          "type": "address"
        },
        {
          "indexed": true,
          "internalType": "address",
          "name": "to",
          "type": "address"
        },
        {
          "indexed": true,
          "internalType": "uint256",
          "name": "tokenId",
          "type": "uint256"
        }
      ],
      "name": "Transfer",
      "type": "event"
    },
    {
      "inputs": [
        {
          "internalType": "address",
          "name": "to",
          "type": "address"
        },
        {
          "internalType": "uint256",
          "name": "tokenId",
          "type": "uint256"
        }
      ],
      "name": "approve",
      "outputs": [],
      "stateMutability": "nonpayable",
      "type": "function"
    },
    {
      "inputs": [
        {
          "internalType": "address",
          "name": "owner",
          "type": "address"
        }
      ],
      "name": "balanceOf",
      "outputs": [
        {
          "internalType": "uint256",
          "name": "",
          "type": "uint256"
        }
      ],
      "stateMutability": "view",
      "type": "function"
    },
    {
      "inputs": [
        {
          "internalType": "uint256",
          "name": "tokenId",
          "type": "uint256"
        }
      ],
      "name": "getApproved",
      "outputs": [
        {
          "internalType": "address",
          "name": "",
          "type": "address"
        }
      ],
      "stateMutability": "view",
      "type": "function"
    },
    {
      "inputs": [],
      "name": "getTotalNFTsMintedSoFar",
      "outputs": [
        {
          "internalType": "uint256",
          "name": "",
          "type": "uint256"
        }
      ],
      "stateMutability": "view",
      "type": "function"
    },
    {
      "inputs": [
        {
          "internalType": "address",
          "name": "owner",
          "type": "address"
        },
        {
          "internalType": "address",
          "name": "operator",
          "type": "address"
        }
      ],
      "name": "isApprovedForAll",
      "outputs": [
        {
          "internalType": "bool",
          "name": "",
          "type": "bool"
        }
      ],
      "stateMutability": "view",
      "type": "function"
    },
    {
      "inputs": [],
      "name": "makeAnEpicNFT",
      "outputs": [],
      "stateMutability": "nonpayable",
      "type": "function"
    },
    {
      "inputs": [],
      "name": "name",
      "outputs": [
        {
          "internalType": "string",
          "name": "",
          "type": "string"
        }
      ],
      "stateMutability": "view",
      "type": "function"
    },
    {
      "inputs": [
        {
          "internalType": "uint256",
          "name": "tokenId",
          "type": "uint256"
        }
      ],
      "name": "ownerOf",
      "outputs": [
        {
          "internalType": "address",
          "name": "",
          "type": "address"
        }
      ],
      "stateMutability": "view",
      "type": "function"
    },
    {
      "inputs": [
        {
          "internalType": "uint256",
          "name": "tokenId",
          "type": "uint256"
        }
      ],
      "name": "pickRandomFirstWord",
      "outputs": [
        {
          "internalType": "string",
          "name": "",
          "type": "string"
        }
      ],
      "stateMutability": "view",
      "type": "function"
    },
    {
      "inputs": [
        {
          "internalType": "uint256",
          "name": "tokenId",
          "type": "uint256"
        }
      ],
      "name": "pickRandomSecondWord",
      "outputs": [
        {
          "internalType": "string",
          "name": "",
          "type": "string"
        }
      ],
      "stateMutability": "view",
      "type": "function"
    },
    {
      "inputs": [
        {
          "internalType": "uint256",
          "name": "tokenId",
          "type": "uint256"
        }
      ],
      "name": "pickRandomThirdWord",
      "outputs": [
        {
          "internalType": "string",
          "name": "",
          "type": "string"
        }
      ],
      "stateMutability": "view",
      "type": "function"
    },
    {
      "inputs": [
        {
          "internalType": "address",
          "name": "from",
          "type": "address"
        },
        {
          "internalType": "address",
          "name": "to",
          "type": "address"
        },
        {
          "internalType": "uint256",
          "name": "tokenId",
          "type": "uint256"
        }
      ],
      "name": "safeTransferFrom",
      "outputs": [],
      "stateMutability": "nonpayable",
      "type": "function"
    },
    {
      "inputs": [
        {
          "internalType": "address",
          "name": "from",
          "type": "address"
        },
        {
          "internalType": "address",
          "name": "to",
          "type": "address"
        },
        {
          "internalType": "uint256",
          "name": "tokenId",
          "type": "uint256"
        },
        {
          "internalType": "bytes",
          "name": "_data",
          "type": "bytes"
        }
      ],
      "name": "safeTransferFrom",
      "outputs": [],
      "stateMutability": "nonpayable",
      "type": "function"
    },
    {
      "inputs": [
        {
          "internalType": "address",
          "name": "operator",
          "type": "address"
        },
        {
          "internalType": "bool",
          "name": "approved",
          "type": "bool"
        }
      ],
      "name": "setApprovalForAll",
      "outputs": [],
      "stateMutability": "nonpayable",
      "type": "function"
    },
    {
      "inputs": [
        {
          "internalType": "bytes4",
          "name": "interfaceId",
          "type": "bytes4"
        }
      ],
      "name": "supportsInterface",
      "outputs": [
        {
          "internalType": "bool",
          "name": "",
          "type": "bool"
        }
      ],
      "stateMutability": "view",
      "type": "function"
    },
    {
      "inputs": [],
      "name": "symbol",
      "outputs": [
        {
          "internalType": "string",
          "name": "",
          "type": "string"
        }
      ],
      "stateMutability": "view",
      "type": "function"
    },
    {
      "inputs": [
        {
          "internalType": "uint256",
          "name": "tokenId",
          "type": "uint256"
        }
      ],
      "name": "tokenURI",
      "outputs": [
        {
          "internalType": "string",
          "name": "",
          "type": "string"
        }
      ],
      "stateMutability": "view",
      "type": "function"
    },
    {
      "inputs": [
        {
          "internalType": "address",
          "name": "from",
          "type": "address"
        },
        {
          "internalType": "address",
          "name": "to",
          "type": "address"
        },
        {
          "internalType": "uint256",
          "name": "tokenId",
          "type": "uint256"
        }
      ],
      "name": "transferFrom",
      "outputs": [],
      "stateMutability": "nonpayable",
      "type": "function"
    }
  ],
  "bytecode": "0x60806040526040518061016001604052806101308152602001620045f1610130913960089080519060200190620000389291906200090a565b506040518061014001604052806040518060400160405280600681526020017f416c77617973000000000000000000000000000000000000000000000000000081525081526020016040518060400160405280600881526020017f52656d656d62657200000000000000000000000000000000000000000000000081525081526020016040518060400160405280600681526020017f53696d706c79000000000000000000000000000000000000000000000000000081525081526020016040518060400160405280600581526020017f4e6576657200000000000000000000000000000000000000000000000000000081525081526020016040518060400160405280600981526020017f6966206c6f6e656c79000000000000000000000000000000000000000000000081525081526020016040518060400160405280600681526020017f696620736164000000000000000000000000000000000000000000000000000081525081526020016040518060400160405280600481526020017f4a7573740000000000000000000000000000000000000000000000000000000081525081526020016040518060400160405280600a81526020017f5768656e20416e6772790000000000000000000000000000000000000000000081525081526020016040518060400160405280600d81526020017f5768656e20446f75627466756c0000000000000000000000000000000000000081525081526020016040518060400160405280600a81526020017f5768656e20486170707900000000000000000000000000000000000000000000815250815250600990600a620002a39291906200099b565b506040518061010001604052806040518060400160405280600881526020017f2042656c6965766500000000000000000000000000000000000000000000000081525081526020016040518060400160405280600981526020017f20547275737420496e000000000000000000000000000000000000000000000081525081526020016040518060400160405280600981526020017f204469737472757374000000000000000000000000000000000000000000000081525081526020016040518060400160405280600b81526020017f2044697362656c6965766500000000000000000000000000000000000000000081525081526020016040518060400160405280600681526020017f20426c616d65000000000000000000000000000000000000000000000000000081525081526020016040518060400160405280600581526020017f204c6f766500000000000000000000000000000000000000000000000000000081525081526020016040518060400160405280600581526020017f204861746500000000000000000000000000000000000000000000000000000081525081526020016040518060400160405280600c81526020017f20436f6d706c61696e204f660000000000000000000000000000000000000000815250815250600a9060086200049892919062000a02565b506040518061016001604052806040518060400160405280600981526020017f20596f757273656c66000000000000000000000000000000000000000000000081525081526020016040518060400160405280600d81526020017f20796f757220506172746e65720000000000000000000000000000000000000081525081526020016040518060400160405280600a81526020017f20796f757220426f73730000000000000000000000000000000000000000000081525081526020016040518060400160405280600a81526020017f20636f576f726b6572730000000000000000000000000000000000000000000081525081526020016040518060400160405280600b81526020017f206e65696768626f75727300000000000000000000000000000000000000000081525081526020016040518060400160405280600581526020017f204c6f766500000000000000000000000000000000000000000000000000000081525081526020016040518060400160405280600881526020017f20467269656e647300000000000000000000000000000000000000000000000081525081526020016040518060400160405280600781526020017f2050656f706c650000000000000000000000000000000000000000000000000081525081526020016040518060400160405280600881526020017f2044657374696e7900000000000000000000000000000000000000000000000081525081526020016040518060400160405280600a81526020017f20476f7665726d656e740000000000000000000000000000000000000000000081525081526020016040518060400160405280600981526020017f20457468657265756d0000000000000000000000000000000000000000000000815250815250600b90600b6200073e92919062000a69565b503480156200074c57600080fd5b506040518060400160405280600e81526020017f466f7274756e65436f6f6b6965730000000000000000000000000000000000008152506040518060400160405280600681526020017f4e4654434f4f00000000000000000000000000000000000000000000000000008152508160009080519060200190620007d19291906200090a565b508060019080519060200190620007ea9291906200090a565b505050620008386040518060400160405280601e81526020017f54686973206973206d79204e465420636f6e74726163742e20576f61682100008152506200083e60201b620012dd1760201c565b62000c8a565b620008de8160405160240162000855919062000b9e565b6040516020818303038152906040527f41304fac000000000000000000000000000000000000000000000000000000007bffffffffffffffffffffffffffffffffffffffffffffffffffffffff19166020820180517bffffffffffffffffffffffffffffffffffffffffffffffffffffffff8381831617835250505050620008e160201b60201c565b50565b60008151905060006a636f6e736f6c652e6c6f679050602083016000808483855afa5050505050565b828054620009189062000c14565b90600052602060002090601f0160209004810192826200093c576000855562000988565b82601f106200095757805160ff191683800117855562000988565b8280016001018555821562000988579182015b82811115620009875782518255916020019190600101906200096a565b5b50905062000997919062000ad0565b5090565b828054828255906000526020600020908101928215620009ef579160200282015b82811115620009ee578251829080519060200190620009dd9291906200090a565b5091602001919060010190620009bc565b5b509050620009fe919062000aef565b5090565b82805482825590600052602060002090810192821562000a56579160200282015b8281111562000a5557825182908051906020019062000a449291906200090a565b509160200191906001019062000a23565b5b50905062000a65919062000aef565b5090565b82805482825590600052602060002090810192821562000abd579160200282015b8281111562000abc57825182908051906020019062000aab9291906200090a565b509160200191906001019062000a8a565b5b50905062000acc919062000aef565b5090565b5b8082111562000aeb57600081600090555060010162000ad1565b5090565b5b8082111562000b13576000818162000b09919062000b17565b5060010162000af0565b5090565b50805462000b259062000c14565b6000825580601f1062000b39575062000b5a565b601f01602090049060005260206000209081019062000b59919062000ad0565b5b50565b600062000b6a8262000bc2565b62000b76818562000bcd565b935062000b8881856020860162000bde565b62000b938162000c79565b840191505092915050565b6000602082019050818103600083015262000bba818462000b5d565b905092915050565b600081519050919050565b600082825260208201905092915050565b60005b8381101562000bfe57808201518184015260208101905062000be1565b8381111562000c0e576000848401525b50505050565b6000600282049050600182168062000c2d57607f821691505b6020821081141562000c445762000c4362000c4a565b5b50919050565b7f4e487b7100000000000000000000000000000000000000000000000000000000600052602260045260246000fd5b6000601f19601f8301169050919050565b6139578062000c9a6000396000f3fe608060405234801561001057600080fd5b50600436106101165760003560e01c806370a08231116100a2578063b88d4fde11610071578063b88d4fde14610305578063c575757a14610321578063c87b56dd14610351578063de9d132f14610381578063e985e9c51461038b57610116565b806370a082311461026b57806395d89b411461029b578063a22cb465146102b9578063b187301f146102d557610116565b8063095ea7b3116100e9578063095ea7b3146101b757806323b872dd146101d35780632de38d68146101ef57806342842e0e1461021f5780636352211e1461023b57610116565b806301ffc9a71461011b578063060475901461014b57806306fdde0314610169578063081812fc14610187575b600080fd5b61013560048036038101906101309190612570565b6103bb565b60405161014291906131d2565b60405180910390f35b61015361049d565b604051610160919061346d565b60405180910390f35b6101716104ae565b60405161017e91906131ed565b60405180910390f35b6101a1600480360381019061019c91906125c2565b610540565b6040516101ae9190613142565b60405180910390f35b6101d160048036038101906101cc9190612534565b6105c5565b005b6101ed60048036038101906101e8919061242e565b6106dd565b005b610209600480360381019061020491906125c2565b61073d565b60405161021691906131ed565b60405180910390f35b6102396004803603810190610234919061242e565b61085b565b005b610255600480360381019061025091906125c2565b61087b565b6040516102629190613142565b60405180910390f35b610285600480360381019061028091906123c9565b61092d565b604051610292919061346d565b60405180910390f35b6102a36109e5565b6040516102b091906131ed565b60405180910390f35b6102d360048036038101906102ce91906124f8565b610a77565b005b6102ef60048036038101906102ea91906125c2565b610bf8565b6040516102fc91906131ed565b60405180910390f35b61031f600480360381019061031a919061247d565b610d16565b005b61033b600480360381019061033691906125c2565b610d78565b60405161034891906131ed565b60405180910390f35b61036b600480360381019061036691906125c2565b610e96565b60405161037891906131ed565b60405180910390f35b610389610fe8565b005b6103a560048036038101906103a091906123f2565b611249565b6040516103b291906131d2565b60405180910390f35b60007f80ac58cd000000000000000000000000000000000000000000000000000000007bffffffffffffffffffffffffffffffffffffffffffffffffffffffff1916827bffffffffffffffffffffffffffffffffffffffffffffffffffffffff1916148061048657507f5b5e139f000000000000000000000000000000000000000000000000000000007bffffffffffffffffffffffffffffffffffffffffffffffffffffffff1916827bffffffffffffffffffffffffffffffffffffffffffffffffffffffff1916145b80610496575061049582611376565b5b9050919050565b60006104a960076113e0565b905090565b6060600080546104bd9061370c565b80601f01602080910402602001604051908101604052809291908181526020018280546104e99061370c565b80156105365780601f1061050b57610100808354040283529160200191610536565b820191906000526020600020905b81548152906001019060200180831161051957829003601f168201915b5050505050905090565b600061054b826113ee565b61058a576040517f08c379a0000000000000000000000000000000000000000000000000000000008152600401610581906133cd565b60405180910390fd5b6004600083815260200190815260200160002060009054906101000a900473ffffffffffffffffffffffffffffffffffffffff169050919050565b60006105d08261087b565b90508073ffffffffffffffffffffffffffffffffffffffff168373ffffffffffffffffffffffffffffffffffffffff161415610641576040517f08c379a00000000000000000000000000000000000000000000000000000000081526004016106389061342d565b60405180910390fd5b8073ffffffffffffffffffffffffffffffffffffffff1661066061145a565b73ffffffffffffffffffffffffffffffffffffffff16148061068f575061068e8161068961145a565b611249565b5b6106ce576040517f08c379a00000000000000000000000000000000000000000000000000000000081526004016106c5906132ed565b60405180910390fd5b6106d88383611462565b505050565b6106ee6106e861145a565b8261151b565b61072d576040517f08c379a00000000000000000000000000000000000000000000000000000000081526004016107249061344d565b60405180910390fd5b6107388383836115f9565b505050565b6060600061077161074d84611855565b60405160200161075d91906130fe565b604051602081830303815290604052611a02565b9050600980549050816107849190613787565b9050600981815481106107c0577f4e487b7100000000000000000000000000000000000000000000000000000000600052603260045260246000fd5b9060005260206000200180546107d59061370c565b80601f01602080910402602001604051908101604052809291908181526020018280546108019061370c565b801561084e5780601f106108235761010080835404028352916020019161084e565b820191906000526020600020905b81548152906001019060200180831161083157829003601f168201915b5050505050915050919050565b61087683838360405180602001604052806000815250610d16565b505050565b6000806002600084815260200190815260200160002060009054906101000a900473ffffffffffffffffffffffffffffffffffffffff169050600073ffffffffffffffffffffffffffffffffffffffff168173ffffffffffffffffffffffffffffffffffffffff161415610924576040517f08c379a000000000000000000000000000000000000000000000000000000000815260040161091b9061332d565b60405180910390fd5b80915050919050565b60008073ffffffffffffffffffffffffffffffffffffffff168273ffffffffffffffffffffffffffffffffffffffff16141561099e576040517f08c379a00000000000000000000000000000000000000000000000000000000081526004016109959061330d565b60405180910390fd5b600360008373ffffffffffffffffffffffffffffffffffffffff1673ffffffffffffffffffffffffffffffffffffffff168152602001908152602001600020549050919050565b6060600180546109f49061370c565b80601f0160208091040260200160405190810160405280929190818152602001828054610a209061370c565b8015610a6d5780601f10610a4257610100808354040283529160200191610a6d565b820191906000526020600020905b815481529060010190602001808311610a5057829003601f168201915b5050505050905090565b610a7f61145a565b73ffffffffffffffffffffffffffffffffffffffff168273ffffffffffffffffffffffffffffffffffffffff161415610aed576040517f08c379a0000000000000000000000000000000000000000000000000000000008152600401610ae4906132ad565b60405180910390fd5b8060056000610afa61145a565b73ffffffffffffffffffffffffffffffffffffffff1673ffffffffffffffffffffffffffffffffffffffff16815260200190815260200160002060008473ffffffffffffffffffffffffffffffffffffffff1673ffffffffffffffffffffffffffffffffffffffff16815260200190815260200160002060006101000a81548160ff0219169083151502179055508173ffffffffffffffffffffffffffffffffffffffff16610ba761145a565b73ffffffffffffffffffffffffffffffffffffffff167f17307eab39ab6107e8899845ad3d59bd9653f200f220920489ca2b5937696c3183604051610bec91906131d2565b60405180910390a35050565b60606000610c2c610c0884611855565b604051602001610c189190613097565b604051602081830303815290604052611a02565b9050600a8054905081610c3f9190613787565b9050600a8181548110610c7b577f4e487b7100000000000000000000000000000000000000000000000000000000600052603260045260246000fd5b906000526020600020018054610c909061370c565b80601f0160208091040260200160405190810160405280929190818152602001828054610cbc9061370c565b8015610d095780601f10610cde57610100808354040283529160200191610d09565b820191906000526020600020905b815481529060010190602001808311610cec57829003601f168201915b5050505050915050919050565b610d27610d2161145a565b8361151b565b610d66576040517f08c379a0000000000000000000000000000000000000000000000000000000008152600401610d5d9061344d565b60405180910390fd5b610d7284848484611a35565b50505050565b60606000610dac610d8884611855565b604051602001610d989190613075565b604051602081830303815290604052611a02565b9050600b8054905081610dbf9190613787565b9050600b8181548110610dfb577f4e487b7100000000000000000000000000000000000000000000000000000000600052603260045260246000fd5b906000526020600020018054610e109061370c565b80601f0160208091040260200160405190810160405280929190818152602001828054610e3c9061370c565b8015610e895780601f10610e5e57610100808354040283529160200191610e89565b820191906000526020600020905b815481529060010190602001808311610e6c57829003601f168201915b5050505050915050919050565b6060610ea1826113ee565b610ee0576040517f08c379a0000000000000000000000000000000000000000000000000000000008152600401610ed7906133ad565b60405180910390fd5b6000600660008481526020019081526020016000208054610f009061370c565b80601f0160208091040260200160405190810160405280929190818152602001828054610f2c9061370c565b8015610f795780601f10610f4e57610100808354040283529160200191610f79565b820191906000526020600020905b815481529060010190602001808311610f5c57829003601f168201915b505050505090506000610f8a611a91565b9050600081511415610fa0578192505050610fe3565b600082511115610fd5578082604051602001610fbd929190612ff1565b60405160208183030381529060405292505050610fe3565b610fde84611aa8565b925050505b919050565b6000610ff460076113e0565b90506110436040518060400160405280600f81526020017f4d696e74696e67202573202f202573000000000000000000000000000000000081525060018361103c9190613541565b6032611b4f565b60326001826110529190613541565b1115611093576040517f08c379a000000000000000000000000000000000000000000000000000000000815260040161108a9061334d565b60405180910390fd5b600061109e8261073d565b905060006110ab83610bf8565b905060006110b884610d78565b905060008383836040516020016110d193929190613015565b604051602081830303815290604052905060006008826040516020016110f8929190613046565b6040516020818303038152906040529050600061113d8361111884611bee565b6040516020016111299291906130b9565b604051602081830303815290604052611bee565b90506000816040516020016111529190613120565b60405160208183030381529060405290506111a16040518060400160405280601581526020017f0a2d2d2d2d2d2d2d2d2d2d2d2d2d2d2d2d2d2d2d2d00000000000000000000008152506112dd565b6111aa846112dd565b6111e86040518060400160405280601581526020017f2d2d2d2d2d2d2d2d2d2d2d2d2d2d2d2d2d2d2d2d0a00000000000000000000008152506112dd565b6111f23389611dac565b6111fc8882611dca565b6112066007611e3e565b7febb98688741ffa4c7589bf325de30cf7becb63de567842e1ccdb6cb949fdc82c33896040516112379291906131a9565b60405180910390a15050505050505050565b6000600560008473ffffffffffffffffffffffffffffffffffffffff1673ffffffffffffffffffffffffffffffffffffffff16815260200190815260200160002060008373ffffffffffffffffffffffffffffffffffffffff1673ffffffffffffffffffffffffffffffffffffffff16815260200190815260200160002060009054906101000a900460ff16905092915050565b611373816040516024016112f191906131ed565b6040516020818303038152906040527f41304fac000000000000000000000000000000000000000000000000000000007bffffffffffffffffffffffffffffffffffffffffffffffffffffffff19166020820180517bffffffffffffffffffffffffffffffffffffffffffffffffffffffff8381831617835250505050611e54565b50565b60007f01ffc9a7000000000000000000000000000000000000000000000000000000007bffffffffffffffffffffffffffffffffffffffffffffffffffffffff1916827bffffffffffffffffffffffffffffffffffffffffffffffffffffffff1916149050919050565b600081600001549050919050565b60008073ffffffffffffffffffffffffffffffffffffffff166002600084815260200190815260200160002060009054906101000a900473ffffffffffffffffffffffffffffffffffffffff1673ffffffffffffffffffffffffffffffffffffffff1614159050919050565b600033905090565b816004600083815260200190815260200160002060006101000a81548173ffffffffffffffffffffffffffffffffffffffff021916908373ffffffffffffffffffffffffffffffffffffffff160217905550808273ffffffffffffffffffffffffffffffffffffffff166114d58361087b565b73ffffffffffffffffffffffffffffffffffffffff167f8c5be1e5ebec7d5bd14f71427d1e84f3dd0314c0f7b2291e5b200ac8c7c3b92560405160405180910390a45050565b6000611526826113ee565b611565576040517f08c379a000000000000000000000000000000000000000000000000000000000815260040161155c906132cd565b60405180910390fd5b60006115708361087b565b90508073ffffffffffffffffffffffffffffffffffffffff168473ffffffffffffffffffffffffffffffffffffffff1614806115df57508373ffffffffffffffffffffffffffffffffffffffff166115c784610540565b73ffffffffffffffffffffffffffffffffffffffff16145b806115f057506115ef8185611249565b5b91505092915050565b8273ffffffffffffffffffffffffffffffffffffffff166116198261087b565b73ffffffffffffffffffffffffffffffffffffffff161461166f576040517f08c379a0000000000000000000000000000000000000000000000000000000008152600401611666906133ed565b60405180910390fd5b600073ffffffffffffffffffffffffffffffffffffffff168273ffffffffffffffffffffffffffffffffffffffff1614156116df576040517f08c379a00000000000000000000000000000000000000000000000000000000081526004016116d69061328d565b60405180910390fd5b6116ea838383611e7d565b6116f5600082611462565b6001600360008573ffffffffffffffffffffffffffffffffffffffff1673ffffffffffffffffffffffffffffffffffffffff16815260200190815260200160002060008282546117459190613622565b925050819055506001600360008473ffffffffffffffffffffffffffffffffffffffff1673ffffffffffffffffffffffffffffffffffffffff168152602001908152602001600020600082825461179c9190613541565b92505081905550816002600083815260200190815260200160002060006101000a81548173ffffffffffffffffffffffffffffffffffffffff021916908373ffffffffffffffffffffffffffffffffffffffff160217905550808273ffffffffffffffffffffffffffffffffffffffff168473ffffffffffffffffffffffffffffffffffffffff167fddf252ad1be2c89b69c2b068fc378daa952ba7f163c4a11628f55a4df523b3ef60405160405180910390a4505050565b6060600082141561189d576040518060400160405280600181526020017f300000000000000000000000000000000000000000000000000000000000000081525090506119fd565b600082905060005b600082146118cf5780806118b89061373e565b915050600a826118c89190613597565b91506118a5565b60008167ffffffffffffffff811115611911577f4e487b7100000000000000000000000000000000000000000000000000000000600052604160045260246000fd5b6040519080825280601f01601f1916602001820160405280156119435781602001600182028036833780820191505090505b5090505b600085146119f65760018261195c9190613622565b9150600a8561196b9190613787565b60306119779190613541565b60f81b8183815181106119b3577f4e487b7100000000000000000000000000000000000000000000000000000000600052603260045260246000fd5b60200101907effffffffffffffffffffffffffffffffffffffffffffffffffffffffffffff1916908160001a905350600a856119ef9190613597565b9450611947565b8093505050505b919050565b600081604051602001611a159190612fda565b6040516020818303038152906040528051906020012060001c9050919050565b611a408484846115f9565b611a4c84848484611e82565b611a8b576040517f08c379a0000000000000000000000000000000000000000000000000000000008152600401611a829061324d565b60405180910390fd5b50505050565b606060405180602001604052806000815250905090565b6060611ab3826113ee565b611af2576040517f08c379a0000000000000000000000000000000000000000000000000000000008152600401611ae99061340d565b60405180910390fd5b6000611afc611a91565b90506000815111611b1c5760405180602001604052806000815250611b47565b80611b2684611855565b604051602001611b37929190612ff1565b6040516020818303038152906040525b915050919050565b611be9838383604051602401611b679392919061320f565b6040516020818303038152906040527f969cdd03000000000000000000000000000000000000000000000000000000007bffffffffffffffffffffffffffffffffffffffffffffffffffffffff19166020820180517bffffffffffffffffffffffffffffffffffffffffffffffffffffffff8381831617835250505050611e54565b505050565b60606000825190506000811415611c175760405180602001604052806000815250915050611da7565b60006003600283611c289190613541565b611c329190613597565b6004611c3e91906135c8565b90506000602082611c4f9190613541565b67ffffffffffffffff811115611c8e577f4e487b7100000000000000000000000000000000000000000000000000000000600052604160045260246000fd5b6040519080825280601f01601f191660200182016040528015611cc05781602001600182028036833780820191505090505b50905060006040518060600160405280604081526020016138e2604091399050600181016020830160005b86811015611d645760038101905062ffffff818a015116603f8160121c168401518060081b905060ff603f83600c1c1686015116810190508060081b905060ff603f8360061c1686015116810190508060081b905060ff603f831686015116810190508060e01b90508084526004840193505050611ceb565b506003860660018114611d7e5760028114611d8e57611d99565b613d3d60f01b6002830352611d99565b603d60f81b60018303525b508484525050819450505050505b919050565b611dc6828260405180602001604052806000815250612019565b5050565b611dd3826113ee565b611e12576040517f08c379a0000000000000000000000000000000000000000000000000000000008152600401611e099061336d565b60405180910390fd5b80600660008481526020019081526020016000209080519060200190611e39929190612255565b505050565b6001816000016000828254019250508190555050565b60008151905060006a636f6e736f6c652e6c6f679050602083016000808483855afa5050505050565b505050565b6000611ea38473ffffffffffffffffffffffffffffffffffffffff16612074565b1561200c578373ffffffffffffffffffffffffffffffffffffffff1663150b7a02611ecc61145a565b8786866040518563ffffffff1660e01b8152600401611eee949392919061315d565b602060405180830381600087803b158015611f0857600080fd5b505af1925050508015611f3957506040513d601f19601f82011682018060405250810190611f369190612599565b60015b611fbc573d8060008114611f69576040519150601f19603f3d011682016040523d82523d6000602084013e611f6e565b606091505b50600081511415611fb4576040517f08c379a0000000000000000000000000000000000000000000000000000000008152600401611fab9061324d565b60405180910390fd5b805181602001fd5b63150b7a0260e01b7bffffffffffffffffffffffffffffffffffffffffffffffffffffffff1916817bffffffffffffffffffffffffffffffffffffffffffffffffffffffff191614915050612011565b600190505b949350505050565b6120238383612087565b6120306000848484611e82565b61206f576040517f08c379a00000000000000000000000000000000000000000000000000000000081526004016120669061324d565b60405180910390fd5b505050565b600080823b905060008111915050919050565b600073ffffffffffffffffffffffffffffffffffffffff168273ffffffffffffffffffffffffffffffffffffffff1614156120f7576040517f08c379a00000000000000000000000000000000000000000000000000000000081526004016120ee9061338d565b60405180910390fd5b612100816113ee565b15612140576040517f08c379a00000000000000000000000000000000000000000000000000000000081526004016121379061326d565b60405180910390fd5b61214c60008383611e7d565b6001600360008473ffffffffffffffffffffffffffffffffffffffff1673ffffffffffffffffffffffffffffffffffffffff168152602001908152602001600020600082825461219c9190613541565b92505081905550816002600083815260200190815260200160002060006101000a81548173ffffffffffffffffffffffffffffffffffffffff021916908373ffffffffffffffffffffffffffffffffffffffff160217905550808273ffffffffffffffffffffffffffffffffffffffff16600073ffffffffffffffffffffffffffffffffffffffff167fddf252ad1be2c89b69c2b068fc378daa952ba7f163c4a11628f55a4df523b3ef60405160405180910390a45050565b8280546122619061370c565b90600052602060002090601f01602090048101928261228357600085556122ca565b82601f1061229c57805160ff19168380011785556122ca565b828001600101855582156122ca579182015b828111156122c95782518255916020019190600101906122ae565b5b5090506122d791906122db565b5090565b5b808211156122f45760008160009055506001016122dc565b5090565b600061230b612306846134b9565b613488565b90508281526020810184848401111561232357600080fd5b61232e8482856136ca565b509392505050565b60008135905061234581613885565b92915050565b60008135905061235a8161389c565b92915050565b60008135905061236f816138b3565b92915050565b600081519050612384816138b3565b92915050565b600082601f83011261239b57600080fd5b81356123ab8482602086016122f8565b91505092915050565b6000813590506123c3816138ca565b92915050565b6000602082840312156123db57600080fd5b60006123e984828501612336565b91505092915050565b6000806040838503121561240557600080fd5b600061241385828601612336565b925050602061242485828601612336565b9150509250929050565b60008060006060848603121561244357600080fd5b600061245186828701612336565b935050602061246286828701612336565b9250506040612473868287016123b4565b9150509250925092565b6000806000806080858703121561249357600080fd5b60006124a187828801612336565b94505060206124b287828801612336565b93505060406124c3878288016123b4565b925050606085013567ffffffffffffffff8111156124e057600080fd5b6124ec8782880161238a565b91505092959194509250565b6000806040838503121561250b57600080fd5b600061251985828601612336565b925050602061252a8582860161234b565b9150509250929050565b6000806040838503121561254757600080fd5b600061255585828601612336565b9250506020612566858286016123b4565b9150509250929050565b60006020828403121561258257600080fd5b600061259084828501612360565b91505092915050565b6000602082840312156125ab57600080fd5b60006125b984828501612375565b91505092915050565b6000602082840312156125d457600080fd5b60006125e2848285016123b4565b91505092915050565b6125f481613656565b82525050565b61260381613668565b82525050565b6000612614826134fe565b61261e8185613514565b935061262e8185602086016136d9565b61263781613874565b840191505092915050565b600061264d82613509565b6126578185613525565b93506126678185602086016136d9565b61267081613874565b840191505092915050565b600061268682613509565b6126908185613536565b93506126a08185602086016136d9565b80840191505092915050565b600081546126b98161370c565b6126c38186613536565b945060018216600081146126de57600181146126ef57612722565b60ff19831686528186019350612722565b6126f8856134e9565b60005b8381101561271a578154818901526001820191506020810190506126fb565b838801955050505b50505092915050565b6000612738603283613525565b91507f4552433732313a207472616e7366657220746f206e6f6e20455243373231526560008301527f63656976657220696d706c656d656e74657200000000000000000000000000006020830152604082019050919050565b600061279e606b83613536565b91507f222c20226465736372697074696f6e223a20224120686967686c79206163636c60008301527f61696d656420636f6c6c656374696f6e206f6620466f7274756e6520436f6f6b60208301527f6965732e222c2022696d616765223a2022646174613a696d6167652f7376672b60408301527f786d6c3b6261736536342c0000000000000000000000000000000000000000006060830152606b82019050919050565b6000612850601c83613525565b91507f4552433732313a20746f6b656e20616c7265616479206d696e746564000000006000830152602082019050919050565b6000612890600a83613536565b91507f54484952445f574f5244000000000000000000000000000000000000000000006000830152600a82019050919050565b60006128d0602483613525565b91507f4552433732313a207472616e7366657220746f20746865207a65726f2061646460008301527f72657373000000000000000000000000000000000000000000000000000000006020830152604082019050919050565b6000612936601983613525565b91507f4552433732313a20617070726f766520746f2063616c6c6572000000000000006000830152602082019050919050565b6000612976600b83613536565b91507f5345434f4e445f574f52440000000000000000000000000000000000000000006000830152600b82019050919050565b60006129b6602c83613525565b91507f4552433732313a206f70657261746f7220717565727920666f72206e6f6e657860008301527f697374656e7420746f6b656e00000000000000000000000000000000000000006020830152604082019050919050565b6000612a1c600d83613536565b91507f3c2f746578743e3c2f7376673e000000000000000000000000000000000000006000830152600d82019050919050565b6000612a5c603883613525565b91507f4552433732313a20617070726f76652063616c6c6572206973206e6f74206f7760008301527f6e6572206e6f7220617070726f76656420666f7220616c6c00000000000000006020830152604082019050919050565b6000612ac2602a83613525565b91507f4552433732313a2062616c616e636520717565727920666f7220746865207a6560008301527f726f2061646472657373000000000000000000000000000000000000000000006020830152604082019050919050565b6000612b28602983613525565b91507f4552433732313a206f776e657220717565727920666f72206e6f6e657869737460008301527f656e7420746f6b656e00000000000000000000000000000000000000000000006020830152604082019050919050565b6000612b8e601983613525565b91507f436f6f6b696573204e4654206c696d69742072656163686564000000000000006000830152602082019050919050565b6000612bce602e83613525565b91507f45524337323155524953746f726167653a2055524920736574206f66206e6f6e60008301527f6578697374656e7420746f6b656e0000000000000000000000000000000000006020830152604082019050919050565b6000612c34600283613536565b91507f227d0000000000000000000000000000000000000000000000000000000000006000830152600282019050919050565b6000612c74602083613525565b91507f4552433732313a206d696e7420746f20746865207a65726f20616464726573736000830152602082019050919050565b6000612cb4603183613525565b91507f45524337323155524953746f726167653a2055524920717565727920666f722060008301527f6e6f6e6578697374656e7420746f6b656e0000000000000000000000000000006020830152604082019050919050565b6000612d1a602c83613525565b91507f4552433732313a20617070726f76656420717565727920666f72206e6f6e657860008301527f697374656e7420746f6b656e00000000000000000000000000000000000000006020830152604082019050919050565b6000612d80602983613525565b91507f4552433732313a207472616e73666572206f6620746f6b656e2074686174206960008301527f73206e6f74206f776e00000000000000000000000000000000000000000000006020830152604082019050919050565b6000612de6602f83613525565b91507f4552433732314d657461646174613a2055524920717565727920666f72206e6f60008301527f6e6578697374656e7420746f6b656e00000000000000000000000000000000006020830152604082019050919050565b6000612e4c600a83613536565b91507f7b226e616d65223a2022000000000000000000000000000000000000000000006000830152600a82019050919050565b6000612e8c602183613525565b91507f4552433732313a20617070726f76616c20746f2063757272656e74206f776e6560008301527f72000000000000000000000000000000000000000000000000000000000000006020830152604082019050919050565b6000612ef2600a83613536565b91507f46495253545f574f5244000000000000000000000000000000000000000000006000830152600a82019050919050565b6000612f32601d83613536565b91507f646174613a6170706c69636174696f6e2f6a736f6e3b6261736536342c0000006000830152601d82019050919050565b6000612f72603183613525565b91507f4552433732313a207472616e736665722063616c6c6572206973206e6f74206f60008301527f776e6572206e6f7220617070726f7665640000000000000000000000000000006020830152604082019050919050565b612fd4816136c0565b82525050565b6000612fe6828461267b565b915081905092915050565b6000612ffd828561267b565b9150613009828461267b565b91508190509392505050565b6000613021828661267b565b915061302d828561267b565b9150613039828461267b565b9150819050949350505050565b600061305282856126ac565b915061305e828461267b565b915061306982612a0f565b91508190509392505050565b600061308082612883565b915061308c828461267b565b915081905092915050565b60006130a282612969565b91506130ae828461267b565b915081905092915050565b60006130c482612e3f565b91506130d0828561267b565b91506130db82612791565b91506130e7828461267b565b91506130f282612c27565b91508190509392505050565b600061310982612ee5565b9150613115828461267b565b915081905092915050565b600061312b82612f25565b9150613137828461267b565b915081905092915050565b600060208201905061315760008301846125eb565b92915050565b600060808201905061317260008301876125eb565b61317f60208301866125eb565b61318c6040830185612fcb565b818103606083015261319e8184612609565b905095945050505050565b60006040820190506131be60008301856125eb565b6131cb6020830184612fcb565b9392505050565b60006020820190506131e760008301846125fa565b92915050565b600060208201905081810360008301526132078184612642565b905092915050565b600060608201905081810360008301526132298186612642565b90506132386020830185612fcb565b6132456040830184612fcb565b949350505050565b600060208201905081810360008301526132668161272b565b9050919050565b6000602082019050818103600083015261328681612843565b9050919050565b600060208201905081810360008301526132a6816128c3565b9050919050565b600060208201905081810360008301526132c681612929565b9050919050565b600060208201905081810360008301526132e6816129a9565b9050919050565b6000602082019050818103600083015261330681612a4f565b9050919050565b6000602082019050818103600083015261332681612ab5565b9050919050565b6000602082019050818103600083015261334681612b1b565b9050919050565b6000602082019050818103600083015261336681612b81565b9050919050565b6000602082019050818103600083015261338681612bc1565b9050919050565b600060208201905081810360008301526133a681612c67565b9050919050565b600060208201905081810360008301526133c681612ca7565b9050919050565b600060208201905081810360008301526133e681612d0d565b9050919050565b6000602082019050818103600083015261340681612d73565b9050919050565b6000602082019050818103600083015261342681612dd9565b9050919050565b6000602082019050818103600083015261344681612e7f565b9050919050565b6000602082019050818103600083015261346681612f65565b9050919050565b60006020820190506134826000830184612fcb565b92915050565b6000604051905081810181811067ffffffffffffffff821117156134af576134ae613845565b5b8060405250919050565b600067ffffffffffffffff8211156134d4576134d3613845565b5b601f19601f8301169050602081019050919050565b60008190508160005260206000209050919050565b600081519050919050565b600081519050919050565b600082825260208201905092915050565b600082825260208201905092915050565b600081905092915050565b600061354c826136c0565b9150613557836136c0565b9250827fffffffffffffffffffffffffffffffffffffffffffffffffffffffffffffffff0382111561358c5761358b6137b8565b5b828201905092915050565b60006135a2826136c0565b91506135ad836136c0565b9250826135bd576135bc6137e7565b5b828204905092915050565b60006135d3826136c0565b91506135de836136c0565b9250817fffffffffffffffffffffffffffffffffffffffffffffffffffffffffffffffff0483118215151615613617576136166137b8565b5b828202905092915050565b600061362d826136c0565b9150613638836136c0565b92508282101561364b5761364a6137b8565b5b828203905092915050565b6000613661826136a0565b9050919050565b60008115159050919050565b60007fffffffff0000000000000000000000000000000000000000000000000000000082169050919050565b600073ffffffffffffffffffffffffffffffffffffffff82169050919050565b6000819050919050565b82818337600083830152505050565b60005b838110156136f75780820151818401526020810190506136dc565b83811115613706576000848401525b50505050565b6000600282049050600182168061372457607f821691505b6020821081141561373857613737613816565b5b50919050565b6000613749826136c0565b91507fffffffffffffffffffffffffffffffffffffffffffffffffffffffffffffffff82141561377c5761377b6137b8565b5b600182019050919050565b6000613792826136c0565b915061379d836136c0565b9250826137ad576137ac6137e7565b5b828206905092915050565b7f4e487b7100000000000000000000000000000000000000000000000000000000600052601160045260246000fd5b7f4e487b7100000000000000000000000000000000000000000000000000000000600052601260045260246000fd5b7f4e487b7100000000000000000000000000000000000000000000000000000000600052602260045260246000fd5b7f4e487b7100000000000000000000000000000000000000000000000000000000600052604160045260246000fd5b6000601f19601f8301169050919050565b61388e81613656565b811461389957600080fd5b50565b6138a581613668565b81146138b057600080fd5b50565b6138bc81613674565b81146138c757600080fd5b50565b6138d3816136c0565b81146138de57600080fd5b5056fe4142434445464748494a4b4c4d4e4f505152535455565758595a6162636465666768696a6b6c6d6e6f707172737475767778797a303132333435363738392b2fa26469706673582212202c0327010cf949d0d0567cf8901d6dcf98eac1d08383e26f137e515e18952ddd64736f6c634300080000333c73766720786d6c6e733d27687474703a2f2f7777772e77332e6f72672f323030302f73766727207072657365727665417370656374526174696f3d27784d696e594d696e206d656574272076696577426f783d273020302033353020333530273e3c7374796c653e2e62617365207b2066696c6c3a20626c61636b3b20666f6e742d66616d696c793a2073657269663b20666f6e742d73697a653a20323470783b207d3c2f7374796c653e3c726563742077696474683d273130302527206865696768743d2731303025272066696c6c3d276f72616e676527202f3e3c7465787420783d273530252720793d273530252720636c6173733d27626173652720646f6d696e616e742d626173656c696e653d276d6964646c652720746578742d616e63686f723d276d6964646c65273e",
  "linkReferences": {},
  "deployedLinkReferences": {}
}